:020000040800F2
:100000000000082099370008DF080008E108000810
:10001000E3080008E5080008E70800080000000001
:10002000000000000000000000000000E9080008D7
:10003000EB08000800000000ED080008EF080008C9
:10004000E9370008E9370008E9370008E937000810
:10005000E9370008E9370008E9370008E937000800
:10006000E9370008E9370008E9370008E9370008F0
:10007000E9370008E9370008E9370008E9370008E0
:10008000E9370008E9370008E9370008E9370008D0
:10009000E9370008E9370008E9370008E9370008C0
:1000A000E9370008E9370008E9370008E9370008B0
:1000B000E9370008E9370008E9370008E9370008A0
:1000C000E9370008E9370008E9370008E937000890
:1000D000E9370008E9370008E9370008E937000880
:1000E000E9370008E9370008E9370008E937000870
:1000F000E9370008E9370008E9370008E937000860
:10010000E9370008E9370008E9370008E93700084F
:10011000E9370008E9370008E9370008E93700083F
:10012000E9370008E9370008E9370008E93700082F
:10013000E9370008E9370008E9370008E93700081F
:10014000E9370008E9370008E9370008E93700080F
:10015000E9370008E9370008E9370008E9370008FF
:10016000E9370008E9370008E9370008E9370008EF
:10017000E9370008E9370008E93700080000000007
:10018000E9370008E9370008E9370008E9370008CF
:10019000E9370008E9370008E9370008E9370008BF
:1001A000E9370008E9370008E9370008E9370008AF
:1001B000E9370008E9370008E9370008F9080008BE
:1001C00009090008E9370008E9370008E93700089D
:1001D000E9370008E9370008E9370008E93700087F
:1001E000E9370008E9370008E9370008E93700086F
:0801F000E9370008E9370008B7
:1001F80010B5054C237833B9044B13B10448AFF359
:1002080000800123237010BD78000020000000004A
:10021800F841000808B5034B1BB103490348AFF385
:10022800008008BD000000007C000020F8410008A4
:1002380053B94AB9002908BF00281CBF4FF0FF3145
:100248004FF0FF3000F06EB9ADF1080C6DE904CE47
:1002580000F006F8DDF804E0DDE9022304B0704799
:100268002DE9F047089D04468C46002B40F083801A
:100278008A42174647D9B2FA82F242B1C2F1200047
:1002880024FA00F09140974040EA010C94404FEA6C
:100298001748230CBCFBF8F61FFA87FE08FB16C1AB
:1002A80043EA014306FB0EF1994209D9FB1806F10E
:1002B800FF3080F01981994240F21681023E3B449A
:1002C8005B1AA4B2B3FBF8F008FB103344EA03440A
:1002D80000FB0EFEA64509D93C1900F1FF3380F05A
:1002E8000581A64540F2028102383C4440EA0640B6
:1002F800A4EB0E0400261DB1D4400023C5E9004339
:100308003146BDE8F08702B9FFDEB2FA82F2002A70
:1003180050D1CB1B4FEA174E1FFA87F80126B3FBC3
:10032800FEFC210C0EFB1C3341EA034108FB0CF3D5
:100338008B4207D979180CF1FF3002D28B4200F2B8
:10034800E9808446C91AA3B2B1FBFEF00EFB101176
:1003580043EA014408FB00F8A04507D93C1900F11D
:10036800FF3302D2A04500F2D9801846A4EB080456
:1003780040EA0C40BFE78B4209D9002D00F0B1805C
:100388000026C5E9000130463146BDE8F087B3FADA
:1003980083F6002E4AD18B4202D3824200F2B88003
:1003A800841A61EB030101208C46002DA8D0C5E911
:1003B800004CA5E7C2F1200320FA03F6974001FAA2
:1003C80002F04FEA174ED9403043030CB1FBFEF65A
:1003D8001FFA87F80EFB161143EA014306FB08F1E2
:1003E800994204FA02F409D9FB1806F1FF3C80F09F
:1003F8008D80994240F28A80023E3B445B1A81B26A
:10040800B3FBFEF00EFB103341EA034100FB08F397
:100418008B4207D9791800F1FF3C73D28B4271D90E
:1004280002383944CB1A40EA064678E7C6F1200C70
:1004380003FA06F422FA0CF31C4320FA0CF701FA2B
:1004480006F34FEA144E21FA0CF11F433B0CB1FBA3
:10045800FEF91FFA84F80EFB191143EA014109FB62
:1004680008FA8A4502FA06F200FA06F308D9611872
:1004780009F1FF3048D28A4546D9A9F10209214439
:10048800A1EB0A01BFB2B1FBFEF00EFB101147EA67
:10049800014700FB08F8B84507D9E71900F1FF3113
:1004A8002ED2B8452CD90238274440EA0940A7EB98
:1004B8000807A0FB02894F45C64649461AD317D0FC
:1004C8005DB1B3EB0E0267EB010707FA0CFCF240D3
:1004D8004CEA0202F740C5E9002700263146BDE88C
:1004E800F0872E4628460BE70646E9E61846FDE65D
:1004F8004345E5D2B8EB020E69EB04010138DFE7AA
:100508000846D2E760468DE78146B9E7664675E753
:1005180030464AE7ACF1020C394413E702383C4450
:1005280024E700BF704700BF8AB02E4B1A6B42F019
:1005380010021A631A6B02F010020092009A1A6BEA
:1005480042F480721A631A6B02F480720192019A63
:100558001A6B42F020021A631A6B02F02002029210
:10056800029A1A6B42F080021A631A6B02F0800238
:100578000392039A1A6B42F001021A631A6B02F093
:1005880001020492049A1A6B42F002021A631A6B6F
:1005980002F002020592059A1A6B42F400721A637D
:1005A8001A6B02F400720692069A1A6B42F0400225
:1005B8001A631A6B02F040020792079A1A6B42F00C
:1005C80008021A631A6B02F008020892089A1A6B5A
:1005D80042F480621A631B6B03F480630993099BDE
:1005E8000AB070470038024038B50D4C0D4B2360F7
:1005F8000D4B63600025A5600123E36025616561FB
:10060800A561E5612562204601F0AAFC294620463D
:1006180001F0C4FF2946204601F0EEFF38BD00BFB7
:10062800B0000020006000405B3D3000F0B59BB09A
:100638003424224600210DEB040003F0FDF8224685
:100648000021684603F0F8F82E4D2F4B2B6000244C
:100658006C60AC60EC602C6128236B610923AB6192
:100668003523EB610B232B6240F255336B6240F26A
:10067800EB13AB6240F27533EB6240F2ED132B6380
:1006880085F8344085F8354085F83640284602F02C
:10069800C3F80D944FF448720E920F944FF4F07310
:1006A800109302211191FF21129113944FF4806746
:1006B8001497052615961694179218938DF864408A
:1006C8008DF865408DF8664022460DA9284602F04F
:1006D8001DF90094019402940394049405940694DB
:1006E8000797089609940A940B948DF830408DF872
:1006F80031408DF8324001226946284602F006F959
:100708001BB0F0BDFC0000200068014008B5094896
:10071800094B03600123436010238360C3601F23D8
:100728000361002343618361C361036202F046F9F8
:1007380008BD00BF58020020001000A008B50948F5
:10074800094B03604FF4E133436000238360C360C7
:1007580003610C2242618361C3610362436202F058
:1007680041FD08BDA40100200050004000B589B03B
:100778001048114B0360002343608360C36020224C
:1007880002614022426180228261C3610362436246
:1007980083620223019306220292042103910492A8
:1007A800059306930793694402F05AFF09B05DF870
:1007B80004FB00BF24020020400100A070B5B8B0BF
:1007C800342200212BA803F037F80024269427941C
:1007D800289429942A949022214602A803F02CF800
:1007E800224B5A6822F03F0242F010025A605A68BF
:1007F80022F480025A601A6C42F080521A641B6C10
:1008080003F080530093009B194A136823F4404374
:1008180043F480431360136803F440430193019B3E
:1008280002252B9501262E9610232F93319432946E
:1008380033932BA800F07AFB0F2326932794289450
:1008480029942A94214626A800F0E2FD094B029338
:10085800C0230793099508950A940C960D9417944C
:100868001E9402A800F0B0FE38B070BD00380240F7
:10087800007000400804020008B501F0D1FAFFF743
:100888009DFFFFF751FEFFF7AFFEFFF7CFFEFFF723
:100898003DFFFFF753FFFFF769FF0B4803F042F8EE
:1008A80002F028FF02F018FF4FF47A7001F0D6FA30
:1008B80002F0AEFD0123054A0021084602F0E4FDDE
:1008C800034803F02FF8FEE7104200081C42000816
:1008D8002842000870477047FEE7FEE7FEE7FEE79C
:1008E80070477047704708B501F0A6FA08BD0000C8
:1008F80008B5024801F092FB08BD00BFB000002017
:1009080008B5024801F000FE08BD00BFB000002095
:100918002D4B1B6803B17047F0B587B02A4B0122F5
:100928001A602A4B9A6B42F001029A639B6B03F0A0
:1009380001030093009B40F2FF6301930227029793
:1009480000260396032504950C24059401A9204844
:1009580001F03CF94FF63F03019302970396049583
:10096800059401A91B4801F031F94FF62C73019346
:10097800029703960495059401A9174801F026F9F2
:1009880048F231130193029703960495059401A93F
:10099800124801F01BF94FF68373019302970396EF
:1009A8000495059401A90E4801F010F94CF203735F
:1009B8000193029703960495059401A9094801F04B
:1009C80005F907B0F0BD00BF9400002000380240D0
:1009D8000020024000140240001C0240001802409F
:1009E80000100240000C024082B00A4B1A6C42F020
:1009F80080521A641A6C02F080520092009A5A6C63
:100A080042F480425A645B6C03F480430193019B77
:100A180002B0704700380240F0B589B00023039354
:100A280004930593069307930268264B9A4201D0D4
:100A380009B0F0BD244C236B43F008032363236BF8
:100A480003F008030093009B236B43F00203236326
:100A5800236B03F002030193019B4FF4805303932C
:100A68001227049701260596032506950423079364
:100A780003A9164801F0AAF8802303930497059662
:100A880006950B23079303A9114801F09FF8236CDF
:100A980043F080732364236C03F080730293029BFA
:100AA800002211465F2000F0EBF95F2000F01AFAEF
:100AB80000221146602000F0E3F9602000F012FAED
:100AC800B6E700BF0060004000380240000C02405A
:100AD800000402402DE9F04190B000230B930C93E1
:100AE8000D930E930F9302686F4B9A4202D010B089
:100AF800BDE8F08103F550435A6C42F080625A64B5
:100B08005A6C02F080620192019A1A6B42F010024C
:100B18001A631A6B02F010020292029A1A6B42F4DC
:100B280080721A631A6B02F480720392039A1A6B2A
:100B380042F020021A631A6B02F020020492049A0F
:100B48001A6B42F080021A631A6B02F08002059257
:100B5800059A1A6B42F001021A631A6B02F001023D
:100B68000692069A1A6B42F400721A631A6B02F420
:100B780000720792079A1A6B42F040021A631A6BC6
:100B880002F040020892089A1A6B42F008021A63AF
:100B98001A6B02F008020992099A1A6B42F48062F1
:100BA8001A631B6B03F480630A930A9B70230B93ED
:100BB80002250C9500240D940E940E260F960BA971
:100BC8003A4801F003F84FF400630B930C950D9429
:100BD8000E9409270F97DFF8F0800BA9404600F024
:100BE800F5FF4FF470430B930C950D940E940F96EC
:100BF8000BA9404600F0EAFF4FF480630B930C9575
:100C08000D940E940F960BA9294800F0DFFF1023CE
:100C18000B930C950D940E940F970BA9254800F093
:100C2800D5FF4FF488630B930C950D940E940F9693
:100C38000BA9214800F0CAFF4CF23F030B930C9517
:100C48000D940E940F9608F580680BA9404600F0A5
:100C5800BDFF40230B930C950D940E940F960BA992
:100C6800164800F0B3FF08230B930C950D940E94CF
:100C78000F960BA9124800F0A9FF4FF440530B93AD
:100C88000C950D940E940F970BA9404600F09EFF0B
:100C980078230B930C950D940E940F960BA9094885
:100CA80000F094FF23E700BF0068014000100240F5
:100CB80000140240001C02400000024000180240DC
:100CC800000C024000280240002002402DE9F043B9
:100CD8008BB0002305930693079308930993026842
:100CE8003A4B9A4202D00BB0BDE8F083384B9A6B6E
:100CF80042F002029A639A6B02F002020092009A92
:100D08001A6B42F010021A631A6B02F01002019279
:100D1800019A1A6B42F020021A631A6B02F0200241
:100D28000292029A1A6B42F002021A631A6B02F0DC
:100D380002020392039A1A6B42F008021A631B6BB1
:100D480003F008030493049B4FF00408CDF81480C3
:100D58000226069600250795032408940927099773
:100D680005A91C4800F032FF4FF40073059306965E
:100D7800079508944FF00A09CDF8249005A916485C
:100D880000F024FFCDF8148006960795089409977B
:100D9800DFF84C8005A9404600F018FF4FF42053B7
:100DA8000593069607950894099705A90B4800F03E
:100DB8000DFF40230593069607950894CDF82490D7
:100DC80005A9404600F002FF8DE700BF001000A013
:100DD800003802400010024000140240000C02409B
:100DE8000004024000B589B00023039304930593DF
:100DF800069307930268154B9A4202D009B05DF832
:100E080004FB03F5F4331A6C42F480121A641A6C6A
:100E180002F480120192019A1A6B42F002021A63DC
:100E28001B6B03F002030293029B4FF4407303937E
:100E380002230493002305930323069307230793B0
:100E480003A9034800F0C2FED8E700BF00500040E5
:100E58000004024008B5FFF75BFD08BD0649CB68F2
:100E680023F4E0631B041B0C000200F4E06003435E
:100E7800024A1A43CA60704700ED00E00000FA0514
:100E880030B4154BDB68C3F30223C3F10704042C09
:100E980028BF04241D1D062D14D9033B4FF0FF3530
:100EA80005FA04F421EA0401994005FA03F322EA59
:100EB80003031943002807DB0901C9B2074B19547A
:100EC80030BC70470023E9E700F00F000901C9B200
:100ED800034B1954F4E700BF00ED00E000E400E024
:100EE80014ED00E0002807DB00F01F024009012391
:100EF8009340024A42F82030704700BF00E100E00A
:100F08000138B0F1807F0AD2064B5860064AF021BA
:100F180082F823100020986007221A607047012089
:100F2800704700BF10E000E000ED00E0002800F08E
:100F3800068270B582B00446036813F0010F29D009
:100F4800A74B9B6803F00C03042B1AD0A44B9B6897
:100F580003F00C03082B0FD06368B3F5803F40D033
:100F6800002B54D19E4B1A6822F480321A601A68FA
:100F780022F480221A6039E0994B5B6813F4800FE1
:100F8800EAD0974B1B6813F4003F03D06368002B2B
:100F980000F0D781236813F0020F74D0904B9B6840
:100FA80013F00C0F5ED08E4B9B6803F00C03082BDC
:100FB80053D0E368002B00F08980894A136843F016
:100FC8000103136000F044FF0546854B1B6813F0CE
:100FD800020F72D100F03CFF401B0228F5D9032014
:100FE800B4E17F4A136843F48033136063682BB31A
:100FF80000F02EFF05467A4B1B6813F4003FC9D159
:1010080000F026FF401B6428F5D903209EE1B3F5C4
:10101800A02F09D0724B1A6822F480321A601A681D
:1010280022F480221A60E1E76D4B1A6842F48022AC
:101038001A601A6842F480321A60D7E700F008FF95
:101048000546674B1B6813F4003FA3D000F000FF70
:10105800401B6428F5D9032078E1614B5B6813F4E1
:10106800800FA6D15E4B1B6813F0020F03D0E36814
:10107800012B40F068815A4A136823F0F80321696C
:1010880043EAC1031360236813F0080F46D063696D
:1010980083B3534A536F43F00103536700F0D8FEFC
:1010A80005464F4B5B6F13F0020F37D100F0D0FEAF
:1010B800401B0228F5D9032048E1494A136823F068
:1010C800F803216943EAC1031360DCE7444A136863
:1010D80023F00103136000F0BBFE0546404B1B687C
:1010E80013F0020FCFD000F0B3FE401B0228F5D951
:1010F80003202BE13A4A536F23F00103536700F0B2
:10110800A7FE0546364B5B6F13F0020F06D000F0C2
:101118009FFE401B0228F5D9032017E1236813F02E
:10112800040F7DD02E4B1B6C13F0805F0BD12C4B22
:101138001A6C42F080521A641B6C03F080530193BE
:10114800019B012500E00025264B1B6813F4807FD6
:101158000ED0A368012B1FD0002B35D1204B1A6F5E
:1011680022F001021A671A6F22F004021A6718E0C7
:101178001C4A136843F48073136000F069FE064646
:10118800184B1B6813F4807FE3D100F061FE801BCD
:101198006428F5D90320D9E0114A136F43F00103FD
:1011A8001367A36853B300F053FE06460C4B1B6F3E
:1011B80013F0020F33D100F04BFE801B41F288334D
:1011C8009842F3D90320C1E0052B0DD0044B1A6FC8
:1011D80022F001021A671A6F22F004021A67E0E788
:1011E8000038024000700040604B1A6F42F0040261
:1011F8001A671A6F42F001021A67D2E700F028FE58
:1012080006465A4B1B6F13F0020F08D000F020FE61
:10121800801B41F288339842F3D9032096E0FDB948
:10122800A369002B00F09180504A926802F00C02EA
:10123800082A59D0022B19D04C4A136823F080731E
:10124800136000F005FE0446484B1B6813F0007F4E
:1012580048D000F0FDFD001B0228F5D9032075E0F9
:10126800424A136C23F080531364D9E73F4A13684A
:1012780023F08073136000F0EBFD05463B4B1B68C1
:1012880013F0007F06D000F0E3FD401B0228F5D9DB
:1012980003205BE0E369226A1343626A43EA82132C
:1012A800A26A5208013A43EA0243E26A43EA026345
:1012B800226B43EA02732D4A5360136843F080732C
:1012C800136000F0C5FD0446284B1B6813F0007F2F
:1012D80006D100F0BDFD001B0228F5D9032035E03A
:1012E800002033E0002031E0204A5268012B2FD043
:1012F80002F48003E1698B422CD102F03F03216A9A
:101308008B4229D1616A47F6C0731340B3EB811F42
:1013180024D102F44031A36A5B08013BB1EB034FCF
:101328001ED102F07063E16AB3EB016F1AD102F0CB
:10133800E042236BB2EB037F16D1002006E00120C8
:101348007047012002E0012000E0002002B070BDDB
:101358000120FBE70120F9E70120F7E70120F5E785
:101368000120F3E70120F1E70120EFE70038024010
:10137800F8B5244B9B6803F00C03042B3DD0082BD5
:101388003DD1204B5A6802F03F025B6813F4800F8E
:1013980012D01C4B5968C1F3881100231A48A1FBCD
:1013A8000001FEF745FF174B5B68C3F301430133A8
:1013B8005B00B0FBF3F023E0124B5B68C3F38813C8
:1013C8005C010025E41A65F10005AE0146EA946661
:1013D800A701381B66EB0501CC0044EA5074C50030
:1013E800E81844F100018B0243EA90538402204636
:1013F80019460023FEF71CFFD5E7034800E0034821
:10140800F8BD00BF0038024040787D010024F40098
:10141800002800F0A08070B50D460446524B1B68AA
:1014280003F00F038B420BD24F4A136823F00F03CC
:101438000B431360136803F00F038B4240F08D8059
:10144800236813F0020F17D013F0040F04D0474A93
:10145800936843F4E0539360236813F0080F04D0B3
:10146800424A936843F460439360404A936823F088
:10147800F003A1680B439360236813F0010F31D088
:101488006368012B20D0022B25D0384A126812F04D
:10149800020F64D035498A6822F0030213438B6037
:1014A80000F0D6FC0646314B9B6803F00C036268DB
:1014B800B3EB820F16D000F0CBFC801B41F28833CF
:1014C8009842F0D9032045E0284A126812F4003FF8
:1014D800E0D101203EE0254A126812F0007FD9D100
:1014E800012037E0204B1B6803F00F03AB420AD9F9
:1014F8001D4A136823F00F032B431360136803F08E
:101508000F03AB422DD1236813F0040F06D0174AFE
:10151800936823F4E053E1680B439360236813F066
:10152800080F07D0114A936823F46043216943EAFE
:10153800C1039360FFF71CFF0C4B9B68C3F30313B5
:101548000B4AD35CD8400B4B18600B4B186800F063
:1015580041FC002070BD012070470120FAE70120FE
:10156800F8E70120F6E700BF003C024000380240DF
:10157800384200080800002004000020014B1868C9
:10158800704700BF0800002008B5FFF7F7FF044BBD
:101598009B68C3F38223034AD35CD84008BD00BFCD
:1015A800003802404842000808B5FFF7E7FF044B3F
:1015B8009B68C3F34233034AD35CD84008BD00BFDD
:1015C8000038024048420008F0B583B00446066877
:1015D80016F001060DD0B54B9A6822F400029A6005
:1015E8009A68416B0A439A60436B002B00F055815F
:1015F8000026256815F4002511D0AC4AD2F88C30A5
:1016080023F44013E16B0B43C2F88C30E36BB3F562
:10161800801F00F04481002B00F0438100252368DF
:1016280013F4801F0FD0A14AD2F88C3023F4400362
:10163800216C0B43C2F88C30236CB3F5800F00F09B
:10164800328103B90125236813F0807F00D0012679
:1016580013F0200F40F02C81236813F0100F0CD0EA
:10166800924BD3F88C2022F08072C3F88C20D3F8E8
:101678008C20A16B0A43C3F88C20236813F4804F95
:1016880008D08A4AD2F8903023F44033616E0B4375
:10169800C2F89030236813F4004F08D0834AD2F878
:1016A800903023F44023A16E0B43C2F89030236896
:1016B80013F4803F08D07D4AD2F8903023F44013C9
:1016C800E16E0B43C2F89030236813F4003F08D052
:1016D800764AD2F8903023F44003216F0B43C2F8C6
:1016E8009030236813F0400F08D0704AD2F8903039
:1016F80023F00303616C0B43C2F89030236813F0A6
:10170800800F08D0694AD2F8903023F00C03A16CFE
:101718000B43C2F89030236813F4807F08D0634AE3
:10172800D2F8903023F03003E16C0B43C2F89030CC
:10173800236813F4007F08D05C4AD2F8903023F075
:10174800C003216D0B43C2F89030236813F4806FF7
:1017580008D0564AD2F8903023F44073616D0B4399
:10176800C2F89030236813F4006F08D04F4AD2F8BB
:10177800903023F44063A16D0B43C2F89030236886
:1017880013F4805F08D0494AD2F8903023F44053CC
:10179800E16D0B43C2F89030236813F4005F08D062
:1017A800424AD2F8903023F44043216E0B43C2F8EA
:1017B8009030236813F4800F08D03C4AD2F8903058
:1017C80023F08063A16F0B43C2F89030236813F4B1
:1017D800001F0DD0354AD2F8903023F00063E16F36
:1017E8000B43C2F89030E36FB3F1006F00F0C6808E
:1017F800236813F0080F00D0012513F4802F08D0B8
:101808002A4AD2F8903023F04073616F0B43C2F834
:101818009030236813F4000F09D0244AD2F890308E
:1018280023F08053D4F880100B43C2F8903023681B
:1018380013F0806F09D01D4AD2F8903023F000537E
:10184800D4F884100B43C2F89030236813F0006F6B
:1018580009D0164AD2F88C3023F00073D4F88810D7
:101868000B43C2F88C30236813F0805F09D00F4A0D
:10187800D2F88C3023F08063D4F88C100B43C2F874
:101888008C30002E7CD12368B3F1007F78D0012DF5
:1018980000F00981002003B0F0BD0126A9E6012669
:1018A800B9E60125BBE60126CBE600BF00380240B9
:1018B800B74B1A6C42F080521A641B6C03F08053C9
:1018C8000193019BB34A136843F48073136000F0DB
:1018D800BFFA0746AF4B1B6813F4807F06D100F0B0
:1018E800B7FAC01B6428F5D90320D4E7A84B1B6FAF
:1018F80013F4407315D0226B02F440729A4210D050
:10190800A34B1A6F22F44072196F41F480311967A2
:10191800196F21F4803119671A671B6F13F0010FD3
:1019280012D1236B03F44072B2F5407F1DD0984A60
:10193800936823F4F813936095490B6F226BC2F3F5
:101948000B0213430B6787E600F082FA0746904BB9
:101958001B6F13F0020FE4D100F07AFAC01B41F2BA
:1019680088339842F3D9032095E78948826822F49E
:10197800F812894919400A438260DDE7012537E7F3
:10198800834A136823F08063136000F061FA064607
:101998007F4B1B6813F0006F06D000F059FA801BCC
:1019A8006428F5D9032076E7236813F0010F13D0D4
:1019B800636B8BB9764AD2F88430D2F884106068A9
:1019C80003F4403343EA801301F070610B43A168CC
:1019D80043EA0173C2F88430236813F4002F03D05C
:1019E800E26BB2F5801F06D013F4801F1ED0236C63
:1019F800B3F5800F1AD1664AD2F88430D2F8841031
:101A0800606803F4403343EA8013E06843EA006304
:101A180001F0E0410B43C2F88430D2F88C3023F057
:101A28001F03616A01390B43C2F88C30236813F035
:101A3800807F11D0564AD2F88400D2F884106668A4
:101A480023691B0443EA861300F07060034301F026
:101A5800E0410B43C2F88430236813F0007F0DD0B7
:101A6800626823691B0443EA8213E26843EA02635B
:101A7800A26843EA0273464AC2F88430444A1368AB
:101A880043F08063136000F0E3F90646404B1B689F
:101A980013F0006F7FF4FBAE00F0DAF9801B6428C6
:101AA800F4D90320F7E63A4A136823F08053136009
:101AB80000F0CEF90546364B1B6813F0005F06D0E0
:101AC80000F0C6F9401B6428F5D90320E3E6236833
:101AD80013F4002F01D0E26B22B113F4801F1DD044
:101AE800236CDBB92A4AD2F88830D2F888106069AA
:101AF80003F4403343EA8013A06943EA006301F02A
:101B0800E0410B43C2F88830D2F88C3023F4F85304
:101B1800A16A013943EA0123C2F88C30236813F41F
:101B2800001F03D0E36FB3F1006F37D0236813F0C1
:101B3800080F19D0164AD2F88810D2F88830606990
:101B480003F4403343EA801301F070610B43E16909
:101B580043EA0173C2F88830D2F88C3023F440335A
:101B6800E16A0B43C2F88C30094A136843F080538A
:101B7800136000F06DF90446054B1B6813F0005F15
:101B88001FD100F065F9001B6428F5D9032082E60F
:101B98000038024000700040FFFCFF0F0A4AD2F8EC
:101BA8008800D2F888106569236A1B0443EA851304
:101BB80000F07060034301F0E0410B43C2F8883045
:101BC800B4E7002067E600BF0038024000230F2B6F
:101BD80000F2E380F0B583B039E0092200E000228A
:101BE800B2403A4302346D4E46F824206C4A1468D9
:101BF800EA4324EA05064F6817F4803F01D045EA16
:101C08000406674C2660646802EA04064F6817F405
:101C1800003F01D045EA0406614C6660A46802EA08
:101C280004064F6817F4801F01D045EA04065C4C8F
:101C3800A660E46822404E6816F4001F01D045EA09
:101C48000402574CE26001330F2B00F2A4800122FA
:101C58009A400C6804EA020532EA0404F3D14C689D
:101C6800661E112C18BF012E01D9122C12D18668BC
:101C78005F000324BC4026EA0406CC68BC40344319
:101C88008460466826EA02064C68C4F300129A404B
:101C980032434260C7685E000324B440E24327EA47
:101CA80004078C68B4403C43C4604C68122C18BFCD
:101CB800022C13D1DF08083750F827E003F0070497
:101CC8004FEA840C0F2404FA0CF42EEA040E0C6973
:101CD80004FA0CF444EA0E0440F82740046814405F
:101CE8004A6802F00302B240224302604A6812F0D6
:101CF800805FA8D02B4A546C44F480445464526CDE
:101D080002F480420192019A9C08A61C234A52F8C8
:101D1800267003F0030296000F22B24027EA02075A
:101D2800214A90423FF45BAF02F58062904222D094
:101D380002F58062904220D002F5806290421ED067
:101D480002F5806290421CD002F5806290421AD05F
:101D580002F58062904218D002F58062904216D057
:101D680002F58062904214D002F5806290423FF4FE
:101D780034AF0A2234E7012232E7022230E7032295
:101D88002EE704222CE705222AE7062228E7072265
:101D980026E7082224E703B0F0BD70470038014069
:101DA800003C0140003802400000024090F8353005
:101DB800DBB2022B03D08023436501207047052343
:101DC80080F835300268136823F00103136000209F
:101DD8007047000010B504460E4B18784FF47A731C
:101DE800B3FBF0F30C4A1068B0FBF3F0FFF788F888
:101DF80068B90F2C01D901200AE0002221464FF0D2
:101E0800FF30FFF73DF8054B1C60002000E0012083
:101E180010BD00BF000000200800002004000020C2
:101E280008B50320FFF71AF80020FFF7D3FFFEF7E5
:101E3800DBFD002008BD0000034A1168034B1B7836
:101E48000B441360704700BFA4020020000000206C
:101E5800014B1868704700BFA402002038B504463B
:101E6800FFF7F6FF0546B4F1FF3F02D0044B1B789D
:101E78001C44FFF7EDFF401BA042FAD338BD00BF5A
:101E88000000002003689A6912F0020F01D00022B6
:101E98009A6203689A6912F0010F03D19A6942F0B5
:101EA80001029A61704711F0010F09D090F8413092
:101EB80003F02803282B01D0F22302E0422300E09C
:101EC800002311F0020F2CD010B443F0440490F812
:101ED800412002F02802282A18D043F0F40311F018
:101EE800040F01D043F0B80301F01102112A0FD0FA
:101EF80001F0120112290ED012290FD001680A68C8
:101F080022EA03030B605DF8044B70472346E6E7BB
:101F180043F09003ECE743F02003EDE743F0400380
:101F2800ECE711F0040F01D043F0B80301F01102FF
:101F3800112A0BD001F0120112290AD012290BD054
:101F480001680A6822EA03030B60704743F09003B4
:101F5800F0E743F02003F1E743F04003F0E7000027
:101F6800002857D010B5044690F84130002B41D0D6
:101F7800242384F841302268136823F00103136096
:101F88006368226823F0706313612268936823F4FE
:101F980000439360E368012B31D0A368226843F4BF
:101FA80004439360E368022B2FD0226851681A4BD0
:101FB8000B4353602268D36823F40043D36023693A
:101FC80062691343A169226843EA0123D360E36984
:101FD800216A22680B4313602268136843F00103E7
:101FE800136000206064202384F84130206384F863
:101FF800420010BD80F84030FEF70EFDB8E7A36838
:10200800226843F400439360CCE723684FF40062EE
:102018005A60CAE7012070470080000208B50368CB
:1020280099691A68436B03B1984708BD70477047B0
:1020380010B50446002380F8423090F84130DBB2F6
:10204800292B05D090F84130DBB22A2B0FD010BDD8
:10205800282380F84130212303630121FFF723FF60
:10206800002384F840302046FFF7E0FFEFE72823FD
:1020780080F84130222303630221FFF714FF002375
:1020880084F840302046FFF7D2FFE0E77047F8B504
:10209800044690F8413003F02803282B06D0036843
:1020A8000822DA61002380F84030F8BD03689E6991
:1020B800C6F300469A69120C02F0FE059A68C2F34C
:1020C8000902DF6807F0FE07C168022921D185EA05
:1020D800D21515F0060F10D1816C01318164816C25
:1020E8000229E2D1002181640820D86184F84010D7
:1020F80031462046FFF7CAFFD7E70421FFF7D3FE92
:10210800002384F840303A4631462046FFF7BEFFA8
:10211800CBE70421FFF7C7FE002384F840302A46A6
:1021280031462046FFF7B2FFBFE7704710B50446B7
:10213800174BC36200230363202280F8412080F8F4
:102148004230436311F0040F13D003685A6A436A9C
:102158001A70436A01334362038D53B1013B03850F
:10216800438D9BB2013B9BB24385436C43F0040310
:10217800436407212046FFF796FE23681022DA61A0
:10218800002384F840302046FFF7CFFF10BD00BF82
:102198000000FFFF7047704710B5044690F84130C3
:1021A800002084F84200364AE2626085626C0A4385
:1021B8006264283BDBB2022B24D803212046FFF7B8
:1021C80072FE282384F84130002323632D4B636378
:1021D80023681A6812F4804F24D01A6822F48042C7
:1021E8001A60A36B002B3FD0274A1A65002384F896
:1021F8004030A06BFFF7DAFD002835D0A06B036DE7
:10220800984731E007212046FFF74DFE94F841300A
:10221800DBB2602B02D0202384F8413000232363F3
:102228006363D5E71A6812F4004F12D01A6822F4D3
:1022380000421A60E36BBBB1134A1A65002384F8A5
:102248004030E06BFFF7B2FD70B1E06B036D98476B
:102258000AE094F84130DBB2602B06D0002384F802
:1022680040302046FFF796FF10BD202384F8413008
:10227800002384F840302046FFF78DFFF4E700BFC5
:102288000000FFFFB52300087B25000870B5044651
:102298000D4603681E682022DA610721FFF703FE56
:1022A8002268536843F4004353602268536823F05C
:1022B800FF7323F48B3323F4FF7323F0010353607C
:1022C8002046FFF7DFFD16F4804F3BD0A36B1BB110
:1022D8001B685B689BB2638515F0040F11D025F06D
:1022E800040523685A6A636A1A70636A0133636271
:1022F800238D33B1013B2385638D9BB2013B9BB298
:102308006385638D9BB21BB1636C43F00403636404
:102318000023236384F842306363636CEBB9E36A98
:1023280013F5803F27D194F84130DBB2222B31D00E
:10233800202384F84130002384F840302046FFF7FA
:1023480075FE26E016F4004FC6D0E36B002BC3D011
:102358001B685B689BB26385BEE7616C2046FFF72C
:102368001BFF94F84130DBB2282B12D129462046B6
:10237800FFF7DCFE0DE02046FFF75AFE0A4BE3624A
:10238800202384F84130002384F840302046FFF7AA
:10239800CCFE70BD202384F84130002384F84030FF
:1023A8002046FFF744FEF4E70000FFFFF8B5C76AD0
:1023B80090F84030012B00F0A58004460D461646E3
:1023C800012380F8403011F0200F02D012F0200FC6
:1023D80019D115F0100F45D016F0100F42D0638DAB
:1023E8009BB243BB94F84130DBB2282B0ED094F853
:1023F8004130DBB2292B11D023681022DA6100208A
:1024080084F84000F8BDFFF741FFE2E7B7F1007F2D
:10241800EDD129462046FFF789FEF0E717F5803F02
:10242800EAD023681022DA612046FFF72BFD204608
:10243800FFF7FEFDE3E723681022DA61636C43F0DF
:1024480004036364B7F1807F14BF00230123002FC6
:1024580014BF1F460127002FD1D0616C2046FFF71B
:102468009BFECCE715F0040F1FD016F0040F1CD00C
:10247800638D9BB273B123685A6A636A1A70636A80
:1024880001336362238D013B2385638D9BB2013B3E
:102498009BB26385638D9BB2002BB0D117F5803F4B
:1024A800ADD02046FFF7C4FDA9E715F0080F02D00C
:1024B80016F0080F18D115F0020FA0D016F0020F71
:1024C8009DD0638D9BB2A3B1626A236812789A6229
:1024D800636A01336362638D9BB2013B9BB2638580
:1024E800238D013B23858AE729462046FFF7CFFD48
:1024F80085E7002F18BFB7F1807F80D12046FFF70E
:1025080097FD7CE702207DE710B5026893691168A2
:1025180013F4807F09D011F0800F06D0446C44F08A
:10252800010444644FF48074D46113F4806F0AD0BA
:1025380011F0800F07D0426C42F008024264026832
:102548004FF48064D46113F4007F0AD011F0800F37
:1025580007D0436C43F00203436403684FF40072EE
:10256800DA61416C11F00B0F00D110BDFFF714FEBA
:10257800FBE708B5806B826B00231365C26B13659C
:1025880090F84130DBB2602B02D0FFF703FE08BDA4
:10259800202380F84130FFF7FEFDF8E790F841303E
:1025A800DBB2202B24D190F84030012B22D001231C
:1025B80080F84030242380F841300268136823F003
:1025C800010313600268136823F4805313600268E0
:1025D8001368194311600268136843F0010313601C
:1025E800202380F84130002380F840301846704797
:1025F800022070470220704790F84130DBB2202B50
:1026080022D190F84030012B20D0012380F84030AF
:10261800242380F841300268136823F00103136013
:102628000268136823F4706343EA012111600268A9
:10263800136843F001031360202380F8413000231E
:1026480080F84030184670470220704702207047D3
:10265800054BD3F8882042F47002C3F888204FF065
:1026680000629A60704700BF00ED00E0F0B54E6868
:102678000568EB68C3F30B431E44D40105EBC21590
:10268800D5F8883003F47043C5F888300B680568BE
:10269800EF68C7F30B473B44013305EBC21543EA28
:1026A8000643C5F88830CE680568EB68C3F30A03AB
:1026B8001E4405EBC215D5F88C3003F47043C5F8F9
:1026C8008C308B680568EF68C7F30A073B44013311
:1026D80005EBC21543EA0643C5F88C30036803EBE3
:1026E800C213D3F8945025F00705C3F89450036833
:1026F80003EBC2130D69C3F8945091F831E091F8D7
:1027080032C08F69066806EBC216D6F89C300025E1
:10271800C6F89C5091F8303043EA0E2343EA0C4344
:10272800066806EBC21643EA0763C6F89C300368DE
:1027380003EBC213D3F8986026F0FF06C3F898603D
:10274800036803EBC2134E69C3F89860036803EB90
:10275800C213D3F8A0702E4E3E40C3F8A060CE69D5
:102768000F6A036803EBC2133E43C3F8A060036813
:1027780003EBC213D3F8AC60C3F8AC50036803EBA7
:10278800C2124B6AC2F8AC300B696BB1012B39D05D
:10279800022B18BF042B37D0032B37D0072B01D0BF
:1027A800012302E0022300E0042302682244D2F855
:1027B800B05005F0E025C2F8B0508A6A03FB02F574
:1027C8004A680E68921B03FB02F303330268224433
:1027D80043EA0543C2F8B03003682344D3F8B45041
:1027E8000C4A2A40C3F8B42003682344CA6AC3F8D1
:1027F800B42003681C44D4F8843043F00103C4F8BF
:102808008430F0BD0323D0E70223CEE70223CCE7D0
:10281800F8F8FFFF00F8FFFF002872D038B504462B
:1028280090F8A130002B67D0022384F8A1302268E9
:10283800936923F07043936121688A696368A0688B
:102848000343E06803432069034313438B61216812
:102858008A682D4B1A408A60656920688268A16978
:1028680041EA05410A4382602168CA681A40CA6081
:10287800E5692068C268216A41EA05410A43C260E5
:1028880021680A691A400A61656A20680269A16AB2
:1028980041EA05410A43026121684A6913404B61D4
:1028A800E06A21684B69226B42EA004213434B619C
:1028B80094F8350094F836301B042168CA6A02F08F
:1028C8007F42CA622168CA6A43EA002394F8340046
:1028D80003431343CB622268536B43F006035363ED
:1028E8002268936943F0010393610020C4F8A400AF
:1028F800012384F8A13038BD80F8A030FEF7EAF84B
:1029080092E70120704700BF00F800F090F8A0306F
:10291800012B27D02DE9F04106460F4694464FF08B
:10292800010880F8A080022380F8A130342404FB39
:10293800020438340D460FCD0FC40FCD0FC40FCD90
:102948000FC42B682360624639463046FFF78EFE77
:102958003368C3F8248086F8A180002086F8A00098
:10296800BDE8F081022070472DE9F84305460F467F
:1029780016469946DDF820802C68A4683C4214BFAE
:1029880001240024B44214D0B8F1FF3FF4D0FFF77B
:102998005FFAA0EB0900404502D8B8F1000FEBD16F
:1029A800042385F841306B6C43F001036B6401200C
:1029B80000E00020BDE8F8838164704730B583B03B
:1029C8000446FFF745FA002C4AD0054694F84130F2
:1029D800002B3AD021680B6823F4F853A268013A17
:1029E80043EA02230B60A36C00932B4600222021AC
:1029F8002046FFF7B9FF18BB21680B68194A1A402F
:102A08006568E36843EA0563E5692B43256A2B4358
:102A180013430B6021684A68134B134025696269A8
:102A280042EA0542A5692A4313434B6022681368AA
:102A380043F00103136000236364012384F84130E9
:102A4800002384F8403003B030BD84F8403020467D
:102A5800FEF73CF941F288312046FFF7ADFFB9E7B0
:102A68000120F0E72FFFFF00FEF8E0FF38B504462D
:102A780083680269134342691343C26913430168B7
:102A880008689F4A024013430B602268536823F486
:102A98004053E1680B435360A269236A1A432168D3
:102AA8008B6823F4306313438B602368954A934201
:102AB80019D0954A934229D0944A93423ED0944AD9
:102AC800934262D0934A934271D0934A934200F062
:102AD8008380924A934200F09480914A934200F096
:102AE800A58010253AE08F4BD3F8903003F003030C
:102AF800032B09D8DFE803F00204AE0601252DE018
:102B080004252BE0082529E0102527E0854BD3F87C
:102B1800903003F00C030C2B0ED8DFE803F0070D00
:102B28000D0D090D0D0D9D0D0D0D0B00002515E06A
:102B3800042513E0082511E010250FE0794BD3F8A0
:102B4800903003F03003202B00F0888019D8002B38
:102B580000F08680102B40F085800425E369B3F5EA
:102B6800004F00F0AB80082D00F24081DFE815F03F
:102B78000701180122013E012B013E013E013E01E1
:102B88003501302B70D10825E8E7664BD3F8903033
:102B980003F0C003802B69D005D8002B68D0402BE8
:102BA80068D10425DAE7C02B66D10825D6E75D4B46
:102BB800D3F8903003F44073B3F5007F5ED006D8A5
:102BC800002B5DD0B3F5807F5CD10425C6E7B3F553
:102BD800407F59D10825C1E7524BD3F8903003F410
:102BE8004063B3F5006F51D006D8002B50D0B3F531
:102BF800806F4FD10425B1E7B3F5406F4CD108255C
:102C0800ACE7484BD3F8903003F44053B3F5005F7A
:102C180044D006D8002B43D0B3F5805F42D10425B9
:102C28009CE7B3F5405F3FD1082597E73D4BD3F8C4
:102C3800903003F44043B3F5004F37D005D8BBB309
:102C4800B3F5804F36D1042588E7B3F5404F33D12B
:102C5800082583E7022581E702257FE702257DE72E
:102C680000257BE7102579E7102577E7022575E72A
:102C7800002573E7102571E710256FE702256DE73A
:102C880000256BE7102569E7102567E7022565E74A
:102C9800012563E7102561E710255FE702255DE759
:102CA80000255BE7102559E7102557E7022555E76A
:102CB800002553E7102551E710254FE7082D5BD86D
:102CC800DFE805F005323D5A465A5A5A5100FEF7D8
:102CD8005BFC6268530803EB4003B3FBF2F39BB25F
:102CE800A3F110014FF6EF72914200F282809AB27E
:102CF80022F00F02C3F3420313432268D3607BE040
:102D0800F369FFEF00100140004400400048004014
:102D1800004C004000500040001401400078004082
:102D2800007C004000380240FEF73EFC6268530811
:102D380003EB4003B3FBF2F39BB20025D0E76268D4
:102D4800304B03EB5203B3FBF2F39BB20025C7E70A
:102D5800FEF70EFB6268530803EB4003B3FBF2F384
:102D68009BB20025BCE76268530803F58033B3FBC8
:102D7800F2F39BB20025B3E701250023B0E7FEF785
:102D880003FC626800EB5203B3FBF2F39BB2A3F1BE
:102D980010014FF6EF7291422DD82268D3602BE0D4
:102DA800FEF702FC626800EB5203B3FBF2F39BB23E
:102DB8000025ECE76268144B03EB5203B3FBF2F314
:102DC8009BB20025E3E7FEF7D3FA626800EB5203F3
:102DD800B3FBF2F39BB20025D9E76268530803F509
:102DE8000043B3FBF2F39BB20025D0E70125002393
:102DF800CDE7012500E00125002323666366284608
:102E080038BD00BF0048E8010024F400436A13F00D
:102E1800010F06D00268536823F40033816A0B431C
:102E28005360436A13F0020F06D00268536823F414
:102E38008033C16A0B435360436A13F0040F06D012
:102E48000268536823F48023016B0B435360436A81
:102E580013F0080F06D00268536823F40043416B4F
:102E68000B435360436A13F0100F06D0026893684F
:102E780023F48053816B0B439360436A13F0200F54
:102E880006D00268936823F40053C16B0B43936028
:102E9800436A13F0400F0AD00268536823F4801382
:102EA800016C0B435360036CB3F5801F0BD0436A6E
:102EB80013F0800F06D00268536823F40023816C56
:102EC8000B43536070470268536823F4C003416C96
:102ED8000B435360EBE72DE9F84305460F461646CA
:102EE8009946DDF820802C68E46937EA04030CBFB2
:102EF80001240024B4423CD1B8F1FF3FF3D0FEF7DF
:102F0800A7FFA0EB0900404521D8B8F1000F1ED05B
:102F18002B681A6812F0040FE5D0DA6912F4006F12
:102F2800E1D04FF400621A622A68136823F4D07360
:102F380013602A68936823F00103936020236B676A
:102F4800AB67EB67002385F87030032012E02A682E
:102F5800136823F4D07313602A68936823F001037D
:102F6800936020236B67AB67002385F870300320DC
:102F780000E00020BDE8F8832DE9F04182B01E464C
:102F8800436F202B59D104460D469046B2FA82F37E
:102F98005B09002908BF0123002B52D190F870303B
:102FA800012B50D0012380F870300023C367212300
:102FB8004367FEF74DFF0746A4F85080A4F85280F7
:102FC800A368B3F5805F05D04FF00008002384F8AC
:102FD800703014E0236913B14FF00008F6E7A846F3
:102FE8000025F3E738F8023B2268C3F3080393622D
:102FF800B4F8522092B2013A92B2A4F85220B4F82E
:1030080052309BB273B100963B4600228021204685
:10301800FFF761FFC8B9002DE4D015F8012B23682C
:103028009A62E5E700963B46002240212046FFF7DA
:1030380052FF60B92023636700E0022002B0BDE8B8
:10304800F0810120FAE70220F8E70320F6E70320E1
:10305800F4E72DE9F04383B01E46836F202B40F040
:10306800818004460D469046B2FA82F35B09002936
:1030780008BF0123002B79D190F87030012B77D04D
:10308800012380F870300023C36722238367FEF78B
:10309800DFFE0746A4F85880A4F85A80A368B3F561
:1030A800805F06D0A3B9226972B9FF22A4F85C2018
:1030B80014E0226922B940F2FF12A4F85C200DE066
:1030C800FF22A4F85C2009E07F22A4F85C2005E038
:1030D800B3F1805F0DD00022A4F85C20B4F85C80C6
:1030E800B3F5805F0FD04FF00009002384F87030EB
:1030F8001EE022691AB97F22A4F85C20EEE73F227D
:10310800A4F85C20EAE7236913B14FF00009ECE763
:10311800A9460025E9E723685B6A08EA030329F85A
:10312800023BB4F85A2092B2013A92B2A4F85A205B
:10313800B4F85A309BB28BB100963B46002220214E
:103148002046FFF7C8FEA8B9002DE4D023685A6AC4
:103158005FFA88F3134005F8013BE2E72023A367F1
:10316800002000E0022003B0BDE8F0830120FAE768
:103178000220F8E70320F6E730B583B004460023C1
:10318800C367FEF765FE054623681B6813F0080F42
:103198000CD123681B6813F0040F15D12023636733
:1031A800A367002084F8700003B030BD6FF07E4341
:1031B8000093034600224FF400112046FFF78BFED0
:1031C8000028E6D00320EFE76FF07E4300932B46FC
:1031D80000224FF480012046FFF77DFE0028DDD055
:1031E8000320E1E768B310B50446436F03B3242313
:1031F80063672268136823F0010313602046FFF712
:1032080035FC012813D0636ABBB92268536823F4DC
:10321800904353602268936823F02A0393602268DE
:10322800136843F0010313602046FFF7A5FF10BDA4
:1032380080F87030FDF7D6FDD9E72046FFF7E6FDA8
:10324800E3E701207047022801D80120704708B53C
:1032580000F0C8FA09230360002008BD10B5013842
:10326800012809D814464FF0FF3392B20748FFF7F8
:1032780083FE40B9204610BD00F0B4FA092303606C
:103288004FF0FF30F7E70520F5E700BFA401002065
:10329800022801D80020704708B500F0A3FA0923D6
:1032A80003604FF0FF3008BD08B500F09BFA092312
:1032B80003604FF0FF3008BD08B540B94FF0FF3349
:1032C80001220748FFF7C5FE40B9012008BD00F0FC
:1032D80089FA092303604FF0FF30F7E70520F5E787
:1032E800A401002008B5022804D84FF400534B600D
:1032F800002008BD00F076FA09230360F8E7000013
:10330800014B186E704700BFFC000020F8B5064658
:103318000C461546044BDF6DFFF7F2FF00FB046017
:1033280047F82050F8BD00BFFC0000202DE9F04F01
:1033380083B081460E4600922B4B9B68DA88019237
:103348009D8805F1070B4FEAEB0B4FEACB085FFAB4
:1033580088F8EBB2A8EB03085FFA88F84FF0000A88
:1033680029E0009AD75C00240EE00099CB5C5778DE
:1033780047EA0327F7E709EB04001B4B5A68314675
:1033880080B2FFF7C3FF0134A54210D92B1B434479
:10339800013B012202FA03F33B42ECD009EB0400A3
:1033A800114B1A68314680B2FFF7B0FFEBE70136E0
:1033B800B6B20AF1010A019B534512D90AFB0BF375
:1033C800009A1A44BBF1010FCBD0BBF1020FCCD04D
:1033D8000099CB5C57783F0247EA034793781F432D
:1033E800C1E703B0BDE8F08F9800002038B5074B5F
:1033F8009C682568203AE38803FB02F2A388073318
:10340800DB1003FB0252FFF791FF38BD9800002044
:1034180000B58FB000228DF8372001924FF4487123
:10342800029103924FF4F073049302200590FF2059
:10343800069007924FF480600890052009904FF09D
:1034480040400A900B910C938DF834208DF835206C
:103458008DF8362001A90948FFF758FA58B9084BE2
:103468004FF0FF325A60074A9A604FF07F421A6065
:103478000FB05DF804FBFDF72DFAF0E7FC00002023
:10348800980000200C0000202DE9F04105468846F0
:1034980016461F46002412F8011B09B10134FAE749
:1034A800FFF72EFF1F4B9B689B88B0FBF3F0012FA3
:1034B80024D0022F2AD02BB2002B2EDD00243778FF
:1034C800FFF71EFF174B9B689A8802FB14039BB2F9
:1034D800934234BF00230123002F08BF0023F3B118
:1034E8003A4641462846FFF781FF0E4B9B6898886D
:1034F8000544ADB201360134A4B2E0E7001B00FB7D
:1035080003F3C3F34F031D44ADB2D4E7001B10FB14
:1035180003F39BB25D1BADB2CDE70125CEE7BDE855
:10352800F08100BF9800002030B40B68012B18D040
:103538000368194A1A404B688C682343CC682343B4
:103548000C6923434C6923438C692343CC69234387
:103558000C6A2343496A0B4313430360002030BCC1
:103568007047046824F4F844CB690A6A1A434B6A22
:103578001A4322434368084C1C404B688D682B4310
:10358800CD682B430D692B434D692B4389690B4348
:10359800234302604360E1E70080FFFF30B4012A63
:1035A80021D0826802F070420B68013B4C68013CF4
:1035B80043EA04138C68013C43EA0423CC68013CC9
:1035C80043EA04330C69013C43EA04434C69013C77
:1035D80043EA04538969013943EA01631343836069
:1035E800002030BC70478368114C1C40CA68551EC7
:1035F8004B695A1E120542EA05322243C46804F098
:1036080070440B68013B4D68013D43EA05138D6822
:10361800013D43EA05230D69013D43EA05438969F4
:10362800013943EA016323438260C360D8E700BFDE
:10363800FF0F0FFF10B483B00246002001900B6803
:103648004C6823438C68013C43EA4413C96843EA45
:1036580041230193019B136103B05DF8044B70474C
:10366800E0B138B50D46044690F82C308BB10223F2
:1036780084F82C30214651F8040BFFF755FF626897
:1036880029462068FFF78AFF012384F82C300020A0
:1036980038BD80F82D30FDF7DDFBE8E701207047E5
:1036A80038B5044690F82C00C0B202280DD00D465B
:1036B800022384F82C302068FFF7BCFF2B68022B0C
:1036C80004D0012384F82C30002038BD052384F869
:1036D8002C300020F9E700004FF04043044A9342A1
:1036E80004D84FF6FF7223F8012BF7E7704700BFA5
:1036F800EF0200C02DE9F04182B04FF00008CDF88C
:103708000480214C0126266010276760A660C4F853
:103718000C801E4D4FF6FF7221462846FFF7C0FF6A
:103728003046FEF79BFB022323606760A660C4F85F
:103738000C804FF6FF7221462846FFF7B1FF03239E
:10374800236067600823A360C4F80C804FF6FF72FB
:1037580021462846FFF7A4FF4FF40873019304237A
:1037680023606760A660019BE3604FF6FF72214605
:103778002846FFF795FF2A68516940F618230B433E
:10378800536102B0BDE8F081A802002024020020A5
:10379800DFF834D0002103E00C4B5B584350043170
:1037A8000B480C4B42189A42F6D30B4A02E000230E
:1037B80042F8043B094B9A42F9D3FEF749FF00F05F
:1037C80017F8FDF759F87047000008207C5D0008DD
:1037D800000000207800002078000020C8020020A7
:1037E800FEE70000014B1868704700BF1400002076
:1037F80070B50D4D0D4C641BA4100026A64209D1CE
:103808000B4D0C4C00F0F4FC641BA4100026A642DF
:1038180005D170BD55F8043B98470136EEE755F8D9
:10382800043B98470136F2E7745D0008745D0008B0
:10383800745D0008785D000802440346934200D195
:10384800704703F8011BF9E770B50E46054618B135
:1038580083690BB900F048FAAB69AC6813B928461C
:1038680000F042FA2C4B9C4220D16C68636EDB0757
:1038780005D4A389980502D4A06D00F0D3FAA389D2
:1038880019071DD52369DBB1013EA36816F8011F8E
:10389800013BA36039BB002B38DA22460A212846AF
:1038A80000F048F8013011D00A2511E01B4B9C426A
:1038B80001D1AC68DAE71A4B9C4208BFEC68D5E73F
:1038C8002146284600F088F80028DDD04FF0FF3563
:1038D800636EDA0705D4A3899B0502D4A06D00F0B6
:1038E800A2FA284670BD002B04DAA2699A4206DCC7
:1038F8000A2904D023685A1C22601970C5E7224699
:10390800284600F017F80130BFD1DFE723680A2501
:103918005A1C22601D70DBE72C5D00084C5D000816
:103928000C5D0008024B01461868FFF78DBF00BF09
:1039380014000020F8B50E461446054618B18369F0
:103948000BB900F0D1F9214B9C422BD16C68A369CB
:10395800A360A3891A072FD523696BB3236920684D
:10396800C01A6369F6B28342374604DC214628460A
:1039780000F026F930BBA368013BA36023685A1CFA
:1039880022601E7063690130834204D0A389DB077B
:1039980006D50A2E04D12146284600F011F988B927
:1039A8003846F8BD0A4B9C4201D1AC68CFE7094BB9
:1039B8009C4208BFEC68CAE72146284600F00CF88C
:1039C8000028CBD04FF0FF37EAE700BF2C5D000896
:1039D8004C5D00080C5D0008324B70B51D6806464A
:1039E8000C4625B1AB6913B9284600F07DF92E4B7A
:1039F8009C420FD16C68A389B4F90C2019072CD408
:103A0800DD0611D40923336042F04003A3814FF04F
:103A1800FF303EE0254B9C4201D1AC68EBE7244BDC
:103A28009C4208BFEC68E6E7580712D5616B41B1C4
:103A380004F14403994202D0304600F059FA0023B9
:103A48006363A38923F02403A381002363602369AC
:103A58002360A38943F00803A38123694BB9A38991
:103A680003F42073B3F5007F03D02146304600F0FD
:103A7800FFF9A089B4F90C2010F001030AD0002343
:103A8800A36063695B42A361236943B910F08000B6
:103A9800BAD170BD810758BF6369A360F4E70020FD
:103AA800F7E700BF140000202C5D00084C5D0008FB
:103AB8000C5D00088A892DE9F041054610070C467F
:103AC80058D44B68002B05DC0B6C002B02DC002063
:103AD800BDE8F081E66A002EF9D0002312F4805286
:103AE8002F682B6032D0606DA3895A0705D56368AB
:103AF800C01A636B0BB1236CC01A00230246E66A36
:103B0800216A2846B047431CA38906D129681D2984
:103B18002CD82A4ACA40D60728D500226260D90480
:103B28002269226004D5421C01D12B6803B9606563
:103B3800616B2F600029CAD004F14403994202D076
:103B4800284600F0D5F900206063C1E7216A012307
:103B58002846B047411CC7D12B68002BC4D01D2B69
:103B680001D0162B01D12F60B1E7A38943F04003A0
:103B7800A381ADE70F69002FA9D093070E6808BF8E
:103B88004B690F6018BF0023A6EB07088B60B8F1DC
:103B9800000F9CDD216AA66A43463A462846B0478C
:103BA800002806DCA38943F04003A3814FF0FF30CF
:103BB8008EE70744A8EB0008E9E700BF01004020B2
:103BC80038B50B6905460C4613B90025284638BD9B
:103BD80018B183690BB900F087F8144B9C421BD1CC
:103BE8006C68B4F90C30002BEFD0626ED00704D4A7
:103BF800990502D4A06D00F015F928462146FFF773
:103C080059FF636EDA070546E0D4A3899B05DDD426
:103C1800A06D00F008F9D9E7054B9C4201D1AC68CA
:103C2800DFE7044B9C4208BFEC68DAE72C5D00082C
:103C38004C5D00080C5D0008002310B50446C0E97F
:103C48000033C0E90433836081814366C2818361A4
:103C5800194608225C30FFF7EFFD054B6362054B00
:103C6800A362054BE362054B2462236310BD00BFCA
:103C78006D4000088F400008C7400008EB4000086E
:103C8800014900F0AFB800BFC93B000870B54A1E33
:103C9800682555430E4605F1740100F079F904468C
:103CA80040B10021C0E900160C30A06005F168029F
:103CB800FFF7C2FD204670BD014800F0B3B800BF51
:103CC800C0020020014800F0AEB800BFC0020020CA
:103CD800014800F0A7B800BFBB020020014800F06F
:103CE800A2B800BFBB02002010B50446FFF7F0FFE2
:103CF800A3691BB1BDE81040FFF7F0BFC4E9123358
:103D08002365134B134A1B68A262A34204BF012315
:103D1800A361204600F020F86060204600F01CF8FF
:103D2800A060204600F018F80022E06004216068D6
:103D3800FFF782FFA06801220921FFF77DFFE068F5
:103D480002221221FFF778FF0123A361D2E700BF07
:103D5800085D0008893C0008F8B50746FFF7ACFF86
:103D68001E4B1E68B36913B93046FFF7BDFF4836CE
:103D7800D6E90134013B03D533680BB33668F7E75E
:103D8800B4F90C50D5B9164BE36004F158006566D8
:103D980000F047F8FFF796FFC4E90155C4E9045558
:103DA8002560A5610822294604F15C00FFF744FD5F
:103DB800C4E90D55C4E912552046F8BD6834D9E761
:103DC80004213846FFF762FF044630600028D5D149
:103DD800FFF778FF0C233B60EEE700BF085D0008A3
:103DE8000100FFFF2DE9F8430646884600F1480424
:103DF8000027D4E90195B9F1010905D52468002CFB
:103E0800F7D13846BDE8F883AB89012B07D9B5F956
:103E18000E30013303D029463046C0470743683582
:103E2800E9E770477047704770B50E46B1F90E1054
:103E3800002996B014461D4607DA00232B60B38983
:103E48001A0610D44FF480630EE06A4600F070F949
:103E58000028F2DB019A02F47042A2F500535A429C
:103E68005A412A60EEE740230020236016B070BD57
:103E78008B8973B59D0706460C4607D504F14703A1
:103E8800236023610123636102B070BD01AB6A4600
:103E9800FFF7CAFF00990546304600F079F848B99F
:103EA800B4F90C309A05EFD423F0030343F002036E
:103EB800A381E3E70D4BB362A389206043F080033D
:103EC800A381009B6361019B20615BB1B4F90E1073
:103ED800304600F03FF928B1A38923F0030343F0EB
:103EE8000103A381A0890543A581CDE7893C00088A
:103EF80037B5002948D051F8043C0190002BA1F1B6
:103F08000404B8BFE41800F047F9204A0198136880
:103F1800154633B96360146003B0BDE8304000F063
:103F280041B9A3420BD921686218934204BF1A68A9
:103F38005B68636004BF521822602C60ECE71A4685
:103F48005B680BB1A342FAD911685518A5420BD189
:103F5800246821445418A3421160DDD11C685B68B1
:103F6800536021441160D7E702D90C230360D3E7DB
:103F7800256861198B4204BF19685B68636004BFD8
:103F8800491921605460C7E703B030BDA400002080
:103F9800F8B5CD1C25F0030508350C2D38BF0C25C8
:103FA800002D064601DBA94203D90C23336000200B
:103FB800F8BD00F0F1F821490A6814469CB9204F71
:103FC8003B6823B92146304600F03CF83860294662
:103FD800304600F037F8431C23D10C2333603046B9
:103FE80000F0E0F8E3E723685B1B17D40B2B03D939
:103FF80023601C44256004E06368A2420CBF0B6088
:104008005360304600F0CEF804F10B00231D20F079
:104018000700C21ACCD01B1AA350C9E7224664680D
:10402800CCE7C41C24F00304A042E3D0211A304694
:1040380000F008F80130DDD1CFE700BFA400002070
:10404800A800002038B5064D0023044608462B601A
:1040580000F0C0F8431C02D12B6803B1236038BDBF
:10406800C402002010B50C46B1F90E1000F0A0F8FB
:104078000028ABBF636DA3891B1823F48053ACBF22
:104088006365A38110BD2DE9F0411F468B89DB05CF
:1040980005460C46164605D5B1F90E100223002236
:1040A80000F068F8A389B4F90E1023F48053A381B3
:1040B80032463B462846BDE8F04100F017B810B537
:1040C8000C46B1F90E1000F055F8431CA38915BF32
:1040D800606523F4805343F48053A38118BFA38100
:1040E80010BDB1F90E1000F013B8000038B5074D37
:1040F80004460846114600222A601A46FFF7AEF821
:10410800431C02D12B6803B1236038BDC4020020D0
:1041180038B5064D0023044608462B60FFF7B8F86B
:10412800431C02D12B6803B1236038BDC4020020B0
:1041380038B5074D00230446084611462B60FFF7A3
:10414800D1F8431C02D12B6803B1236038BD00BFEE
:10415800C402002038B5064D0023044608462B60EB
:10416800FFF771F8431C02D12B6803B1236038BDF7
:10417800C402002038B5074D0446084611460022FF
:104188002A601A46FFF790F8431C02D12B6803B146
:10419800236038BDC40200200148FFF743BE00BFBA
:1041A800BC0200200148FFF73EBE00BFBC02002051
:1041B80038B5074D04460846114600222A601A46BB
:1041C800FFF77AF8431C02D12B6803B1236038BD8E
:1041D800C4020020044A05491368002B08BF0B4697
:1041E8001844106018467047AC000020C802002030
:1041F800F8B500BFF8BC08BC9E467047F8B500BFCC
:08420800F8BC08BC9E4670479B
:104210004C43442044656D6F0D0000004C43442026
:1042200044454D4F000000004C434420696E6974C2
:1042300020646F6E650D00000000000000000000AB
:10424000010203040607080900000000010203043C
:10425000000000000000000000000000000000005E
:10426000000000000000000000000000000000004E
:10427000000000000000000000000000000000003E
:10428000000000000000000000000000000000002E
:10429000000000000000000000000000000003809B
:1042A000000380000380000380000380000380007F
:1042B0000380000380000380000100000100000073
:1042C00000000000000380000380000000000000E8
:1042D00000000000000000000000000000000000DE
:1042E0000000000000000000000E70000E70000EC4
:1042F00070000420000420000420000420000000BE
:1043000000000000000000000000000000000000AD
:10431000000000000000000000000000000000009D
:104320000000000000000000000000000000066027
:10433000000660000660000660000660003FF800AE
:104340003FF8000660000CC0003FF8003FF8000C8A
:10435000C0000CC0000CC0000CC0000CC00000006D
:10436000000000000000000000000000000000004D
:1043700000000001800001800007B0000FF000186D
:1043800070001870001C00000F800007E00000F0B3
:10439000001830001C30001C70001FE0001BC00023
:1043A0000180000180000180000180000000000009
:1043B0000000000000000000000000000000078076
:1043C000000FC0001CE0001860001860001CE00036
:1043D0000FF80007E0001FF000073800061800067D
:1043E000180007380003F00001E0000000000000A2
:1043F00000000000000000000000000000000000BD
:1044000000000000000000000000000003F00007B2
:10441000F0000C60000C00000C000006000007001B
:10442000000F9C001DFC0018F0001870000FFC002D
:1044300007DC000000000000000000000000000099
:10444000000000000000000000000000000000006C
:1044500000038000038000038000010000010000D1
:10446000010000010000000000000000000000004A
:10447000000000000000000000000000000000003C
:10448000000000000000000000000000000000002C
:10449000000000000000001800003800007000005C
:1044A000F00000E00000E00001C00001C00001C019
:1044B0000001C00001C00001C00000E00000E000F9
:1044C00000700000700000380000180000000000BC
:1044D00000000000000000000000000000001800C4
:1044E000001C00000E00000E000007000007000086
:1044F000038000038000038000038000038000032A
:1045000080000700000700000F00000E00001C00E4
:104510000018000000000000000000000000000083
:104520000000000000000180000180000180001DEB
:10453000B8001FF80007E00003C00003C0000660D9
:104540000006600000000000000000000000000005
:10455000000000000000000000000000000000005B
:10456000000000000000000000000000000000004B
:104570000000000001800001800001800001800037
:104580000180003FFC003FFC000180000180000131
:104590008000018000018000000000000000000099
:1045A000000000000000000000000000000000000B
:1045B00000000000000000000000000000000000FB
:1045C00000000000000000000000000000000000EB
:1045D0000000000000000000000000E00000C0003B
:1045E00001C0000180000180000300000300000002
:1045F00000000000000000000000000000000000BB
:1046000000000000000000000000000000000000AA
:104610000000001FF8001FF800000000000000006C
:10462000000000000000000000000000000000008A
:10463000000000000000000000000000000000007A
:10464000000000000000000000000000000000006A
:10465000000000000000000000000000000000005A
:104660000000000000000000000003C00003C000C4
:1046700003C0000000000000000000000000000077
:1046800000000000000000000018000018000038C2
:104690000000300000700000600000600000C000FA
:1046A00000C000018000018000030000030000063C
:1046B00000000600000E00000C00001C00001800A6
:1046C00000180000000000000000000000000000D2
:1046D00000000000000003C00007E0000C30000CE8
:1046E00030001818001818001818001818001818AA
:1046F000001818001818000C30000C300007E000FB
:1047000003C00000000000000000000000000000E6
:104710000000000000000000000000000000008019
:10472000000780001F80001D8000018000018000C4
:1047300001800001800001800001800001800001F3
:1047400080000180001FF8001FF80000000000003A
:104750000000000000000000000000000000000059
:1047600000000000000007C0001FF00038300030DB
:10477000180030180000180000300000600001C070
:10478000000380000600000C00001800003FF80045
:104790003FF80000000000000000000000000000E2
:1047A000000000000000000000000000000003C046
:1047B000000FE0000C7000003000003000006000CE
:1047C00003C00003E00000700000180000180000A3
:1047D00018001838001FF0000FC000000000000093
:1047E00000000000000000000000000000000000C9
:1047F00000000000000000E00001E00001E0000314
:1048000060000660000660000C60000C600018602C
:10481000003060003FF8003FF80000600003F8003F
:1048200003F800000000000000000000000000008D
:1048300000000000000000000000000000001FF069
:10484000001FF0001800001800001800001BC00036
:104850001FF0001C300000180000180000180000B5
:1048600018003030003FF0000FC0000000000000D2
:104870000000000000000000000000000000000038
:1048800000000000000000F80003F8000700000E20
:1048900000000C00001800001BC0001FF0001C30BE
:1048A000001818001818001818000C38000FF00035
:1048B00003E0000000000000000000000000000015
:1048C00000000000000000000000000000001FF8D1
:1048D000001FF800181800183800003000003000E1
:1048E00000700000600000600000E00000C00000F8
:1048F000C00001C000018000018000000000000035
:1049000000000000000000000000000000000000A7
:1049100000000000000007E0000FF0001C38001845
:1049200018001818000C300007E00007E0000C30F9
:10493000001818001818001818001C38000FF00094
:1049400007E0000000000000000000000000000080
:10495000000000000000000000000000000007C090
:10496000000FF0001C30001818001818001818006C
:104970000C38000FF80003D80000180000300000C9
:10498000700000E0001FC0001F00000000000000D9
:104990000000000000000000000000000000000017
:1049A0000000000000000000000000000000000007
:1049B000000003C00003C00003C0000000000000AE
:1049C0000000000000000000000003C00003C00061
:1049D00003C0000000000000000000000000000014
:1049E00000000000000000000000000000000000C7
:1049F0000000000000000000000000F00000F000D7
:104A000000F00000000000000000000000000000B6
:104A1000E00001C0000180000180000300000200EE
:104A20000000000000000000000000000000000086
:104A3000000000000000000000000000001C00005A
:104A40003C0000F00003C0000F00003C0000F0003C
:104A5000003C00000F000003C00000F000003C001C
:104A6000001C00000000000000000000000000002A
:104A70000000000000000000000000000000000036
:104A8000000000000000000000000000007FFC00AB
:104A90007FFC000000000000007FFC007FFC0000A5
:104AA0000000000000000000000000000000000006
:104AB00000000000000000000000000000000000F6
:104AC00000000000000000000000000070000078FE
:104AD00000001E000007800001E000007800001EBA
:104AE0000000780001E0000780001E000078000050
:104AF0007000000000000000000000000000000046
:104B000000000000000000000000000000000000A5
:104B10000007C0000FE000187000183000183000C7
:104B200000700000E00003C00003800003000000EC
:104B30000000000000070000070000000000000067
:104B40000000000000000000000000000000000065
:104B500000000000000003E00007F0000E38000C29
:104B6000180018780018F80019D80019980019983A
:104B70000019980018F8001878001800000C0000C0
:104B80000E180007F80003E000000000000000001D
:104B90000000000000000000000000000000000015
:104BA000001F80001FC00001C00003600003600000
:104BB0000630000630000C30000FF8001FF8001817
:104BC0000C00300C00FC7F00FC7F000000000000A7
:104BD00000000000000000000000000000000000D5
:104BE0000000000000000000007FE0007FF00018DF
:104BF00038001818001818001838001FF0001FF8A7
:104C000000181C00180C00180C00180C007FF8008D
:104C10007FF0000000000000000000000000000025
:104C20000000000000000000000000000000000084
:104C30000003EC000FFC001C1C00180C00300C00E2
:104C4000300000300000300000300000300000185C
:104C50000C001C1C000FF80003F000000000000016
:104C60000000000000000000000000000000000044
:104C70000000000000000000007FC0007FF000186E
:104C80003800181800180C00180C00180C00180C2C
:104C900000180C00180C001818001838007FF000DD
:104CA0007FE00000000000000000000000000000A5
:104CB00000000000000000000000000000000000F4
:104CC000007FF8007FF800181800181800199800E5
:104CD0001980001F80001F8000198000199800189B
:104CE00018001818007FF8007FF80000000000008E
:104CF00000000000000000000000000000000000B4
:104D00000000000000000000003FFC003FFC000C21
:104D10000C000C0C000CCC000CC0000FC0000FC02D
:104D2000000CC0000CC0000C00000C00003FC000D4
:104D30003FC0000000000000000000000000000074
:104D40000000000000000000000000000000000063
:104D50000003EC000FFC001C1C00180C00300C00C1
:104D600030000030000030FE0030FE00300C003813
:104D70000C001C1C000FFC0003F0000000000000F1
:104D80000000000000000000000000000000000023
:104D90000000000000000000007E7E007E7E001803
:104DA00018001818001818001818001FF8001FF82D
:104DB000001818001818001818001818007E7E0037
:104DC0007E7E0000000000000000000000000000E7
:104DD00000000000000000000000000000000000D3
:104DE000001FF8001FF80001800001800001800012
:104DF000018000018000018000018000018000012D
:104E000080000180001FF8001FF800000000000073
:104E10000000000000000000000000000000000092
:104E200000000000000000000007FE0007FE000078
:104E30003000003000003000003000003000303022
:104E4000003030003030003030003060003FE00093
:104E50000F800000000000000000000000000000C3
:104E60000000000000000000000000000000000042
:104E7000007F3E007F3E0018300018600018C00020
:104E80001980001B80001FC0001CE0001870001873
:104E900030001838007F1F007F1F00000000000056
:104EA0000000000000000000000000000000000002
:104EB0000000000000000000007F80007F80000CE8
:104EC00000000C00000C00000C00000C00000C00A6
:104ED000000C0C000C0C000C0C000C0C007FFC00F7
:104EE0007FFC000000000000000000000000000047
:104EF00000000000000000000000000000000000B2
:104F000000F00F00F81F00381C003C3C003C3C0047
:104F1000366C00366C0033CC0033CC00318C003062
:104F20000C00300C00FE7F00FE7F0000000000003F
:104F30000000000000000000000000000000000071
:104F400000000000000000000078FE0078FE001C59
:104F500018001E18001F18001B18001B980019D8F5
:104F60000018D80018F8001878001838007F1800CA
:104F70007F1800000000000000000000000000009A
:104F80000000000000000000000000000000000021
:104F90000003C0000FF0001C3800181800381C0077
:104FA000300C00300C00300C00300C00381C0018A5
:104FB00018001C38000FF00003C0000000000000C3
:104FC00000000000000000000000000000000000E1
:104FD0000000000000000000003FF0003FF8000C5F
:104FE0001C000C0C000C0C000C0C000C18000FF832
:104FF000000FE0000C00000C00000C00003FC0009F
:105000003FC00000000000000000000000000000A1
:105010000000000000000000000000000000000090
:105020000003C0000FF0001C3800181800381C00E6
:10503000300C00300C00300C00300C00381C001814
:1050400018001C38000FF00007C00007CC000FFC50
:10505000000C38000000000000000000000000000C
:105060000000000000000000007FE0007FF000185A
:1050700038001818001818001838001FF0001FC05A
:105080000018E0001870001830001838007F1E006B
:105090007F0E000000000000000000000000000083
:1050A0000000000000000000000000000000000000
:1050B0000007D8000FF8001C380018180018180056
:1050C0001E00000FC00003F0000078001818001840
:1050D00018001C38001FF0001BE00000000000005A
:1050E00000000000000000000000000000000000C0
:1050F0000000000000000000003FFC003FFC003109
:105100008C00318C00318C00318C000180000180DA
:10511000000180000180000180000180000FF0008C
:105120000FF0000000000000000000000000000080
:10513000000000000000000000000000000000006F
:10514000007E7E007E7E00181800181800181800D7
:105150001818001818001818001818001818001847
:1051600018000C30000FF00003C000000000000029
:10517000000000000000000000000000000000002F
:105180000000000000000000007F7F007F7F00180B
:105190000C000C18000C18000C180006300006302B
:1051A0000003600003600003600001C00001C00054
:1051B000008000000000000000000000000000006F
:1051C00000000000000000000000000000000000DF
:1051D00000FE3F80FE3F8030060030060030860033
:1051E00019CC0019CC001B6C001B6C001E7C000E3F
:1051F00038000E38000C18000C18000000000000E9
:10520000000000000000000000000000000000009E
:105210000000000000000000007E7E007E7E00187E
:1052200018000C300006600003C0000180000180FF
:105230000003C0000660000C30001818007E7E00DD
:105240007E7E000000000000000000000000000062
:10525000000000000000000000000000000000004E
:10526000007C7E007C7E001818000C300006600078
:1052700006600003C0000180000180000180000181
:1052800080000180000FF0000FF00000000000001F
:10529000000000000000000000000000000000000E
:1052A0000000000000000000001FF8001FF80018B8
:1052B000180018300018600018C0000180000300BA
:1052C000000618000C18001818003018003FF800ED
:1052D0003FF8000000000000000000000000000097
:1052E000000000000000000000000000000001F0CD
:1052F0000001F000018000018000018000018000B9
:105300000180000180000180000180000180000117
:10531000800001800001800001800001800001F018
:105320000001F0000000000000000000000000008C
:105330001800001800001C00000C00000E00000601
:10534000000006000003000003000001800001804F
:105350000000C00000C0000060000060000070009D
:1053600000300000380000180000180000000000A5
:1053700000000000000000000000000000000F809E
:10538000000F80000180000180000180000180008A
:105390000180000180000180000180000180000187
:1053A00080000180000180000180000180000F80EA
:1053B000000F80000000000000000000000000005E
:1053C00000000000800001C00003E000077000063C
:1053D00030000C1800180C00100400000000000041
:1053E00000000000000000000000000000000000BD
:1053F00000000000000000000000000000000000AD
:10540000000000000000000000000000000000009C
:10541000000000000000000000000000000000008C
:10542000000000000000000000000000000000007C
:10543000000000000000000000000000000000006C
:1054400000000000000000000000FFFF00FFFF0060
:1054500000000003000003800000E0000060000086
:10546000000000000000000000000000000000003C
:10547000000000000000000000000000000000002C
:10548000000000000000000000000000000000001C
:10549000000000000000000000000000000000000C
:1054A000000000000000000000000FC0001FE0002E
:1054B00000300000300007F0001FF00038300030EE
:1054C00030003070001FFC000FBC00000000000026
:1054D00000000000000000000000000000000000CC
:1054E000000000000000780000780000180000189C
:1054F00000001BE0001FF8001C1800180C00180C1E
:1055000000180C00180C00180C001C18007FF80084
:105510007BE0000000000000000000000000000030
:10552000000000000000000000000000000000007B
:105530000000000000000000000003EC000FFC0071
:105540001C1C00380C00300C00300000300000380B
:105550000C001C1C000FF80003F00000000000000D
:10556000000000000000000000000000000000003B
:105570000000000000000078000078000018000023
:10558000180007D8001FF80018380030180030182D
:10559000003018003018003018001838001FFE00C6
:1055A00007DE000000000000000000000000000016
:1055B00000000000000000000000000000000000EB
:1055C0000000000000000000000007E0001FF800DD
:1055D000181800300C003FFC003FFC003000003089
:1055E0000000180C001FFC0007F000000000000085
:1055F00000000000000000000000000000000000AB
:1056000000000000000001FC0003FC000600000692
:1056100000003FF8003FF80006000006000006000A
:10562000000600000600000600000600003FF00033
:105630003FF000000000000000000000000000003B
:10564000000000000000000000000000000000005A
:105650000000000000000000000007DE001FFE0048
:10566000183800301800301800301800301800309A
:1056700018001838001FF80007D80000180000189C
:10568000000038000FF0000FC00000000000000014
:1056900000000000000078000078000018000018EA
:1056A00000001BE0001FF0001C380018180018183C
:1056B000001818001818001818001818007E7E002E
:1056C0007E7E0000000000000000000000000000DE
:1056D0000000000000000000000000000000018049
:1056E000000180000000000000001F80001F8000FB
:1056F0000180000180000180000180000180000124
:1057000080000180003FFC003FFC00000000000022
:105710000000000000000000000000000000000089
:1057200000000000000000C00000C00000000000F9
:1057300000001FF0001FF0000030000030000030BB
:105740000000300000300000300000300000300069
:105750000030000030000030000070001FE0001F2B
:1057600080000000000000000000000000003C007D
:10577000003C00000C00000C00000CF8000CF800CD
:105780000CC0000D80000F80000F00000F80000D86
:10579000C0000CE0003C7C003C7C000000000000ED
:1057A00000000000000000000000000000000000F9
:1057B0000000000000001F80001F80000180000129
:1057C00080000180000180000180000180000180D4
:1057D000000180000180000180000180003FFC008A
:1057E0003FFC00000000000000000000000000007E
:1057F00000000000000000000000000000000000A9
:1058000000000000000000000000F77800FFFC002E
:1058100039CC00318C00318C00318C00318C00315E
:105820008C00318C00FDEF00FDEF00000000000057
:105830000000000000000000000000000000000068
:105840000000000000000000000000000000000058
:1058500000007BE0007FF0001C38001818001818CA
:10586000001818001818001818001818007E7E007C
:105870007E7E00000000000000000000000000002C
:105880000000000000000000000000000000000018
:105890000000000000000000000003C0000FF00046
:1058A0001C3800381C00300C00300C00300C003864
:1058B0001C001C38000FF00003C0000000000000B6
:1058C00000000000000000000000000000000000D8
:1058D00000000000000000000000000000000000C8
:1058E00000007BE0007FF8001C1800180C00180C6A
:1058F00000180C00180C00180C001C18001FF800F1
:105900001BE0001800001800001800007F00007F56
:105910000000000000000000000000000000000087
:105920000000000000000000000007DE001FFE0075
:1059300018380030180030180030180030180030C7
:1059400018001838001FF80007D8000018000018C9
:105950000000180000FE0000FE0000000000000033
:105960000000000000000000000000000000000037
:1059700000003E78003EFC0007CC00070000060057
:10598000000600000600000600000600003FF000D0
:105990003FF00000000000000000000000000000D8
:1059A00000000000000000000000000000000000F7
:1059B0000000000000000000000007F8000FF800E1
:1059C0001818001818001F80000FF00000F80018C9
:1059D00018001838001FF0001FE000000000000051
:1059E00000000000000000000000000000000000B7
:1059F0000000000000000C00000C00000C00000C77
:105A000000003FF0003FF0000C00000C00000C0014
:105A1000000C00000C00000C00000C1C0007FC0037
:105A200003F0000000000000000000000000000083
:105A30000000000000000000000000000000000066
:105A40000000000000000000000078780078780076
:105A5000181800181800181800181800181800183E
:105A600018001838000FFE0007DE000000000000DC
:105A70000000000000000000000000000000000026
:105A80000000000000000000000000000000000016
:105A900000007C3E007C3E001818001818000C30F6
:105AA000000C300006600006600007E00003C00044
:105AB00003C0000000000000000000000000000023
:105AC00000000000000000000000000000000000D6
